:100000000C9499000C94A3000C94A3000C94A300EE
:100010000C94A3000C94A3000C94A3000C94A300D4
:100020000C94A3000C94A3000C94A3000C94A300C4
:100030000C94A3000C94A3000C94A3000C94A300B4
:100040000C94A3000C94A3000C94A3000C94A300A4
:100050000C94A300BA00CD00E000F30006011901E2
:100060002C013F01520165017B018E01A401B70102
:10007000CD01E001F6010C021F0235024B026102C4
:1000800077028D02A302B902CF02E202F8020E0348
:10009000240334034E03580362036C037603800386
:1000A0008A03CF03EB03070423043E043E043E040B
:1000B0003E043E043E043E043E043E043E043E0430
:1000C0003E043E043E043E043E043E043E043E0420
:1000D0003E043E043E043E043E043E043E043E0410
:1000E0003E04CF03EB03070423044A0455046004D1
:1000F0006B04750475047504750475047504750442
:100100007504750475047504750475047504750427
:100110007504750475047504750475047504750417
:10012000750475047504750475044A045504600467
:100130006B0411241FBECFE5D8E0DEBFCDBF0E9407
:100140007D040C94CB040C940000E82F87B18F7DC4
:1001500087B987B1806487B987B18F7787B98E2FC8
:1001600090E08032910508F08EC2FC01E65DFF4F01
:100170000C94C5048AB38E7F8ABB87B18E7F87B902
:1001800087B18D7F87B987B18B7F87B987B1877F2B
:1001900087B987B18F7E87B976C28AB38D7F8ABBD4
:1001A00087B1816087B987B18D7F87B987B18B7F30
:1001B00087B987B1877F87B987B18F7E87B963C2D7
:1001C0008AB38B7F8ABB87B18E7F87B987B1826004
:1001D00087B987B18B7F87B987B1877F87B987B1A7
:1001E0008F7E87B950C28AB3877F8ABB87B181600F
:1001F00087B987B1826087B987B18B7F87B987B1AB
:10020000877F87B987B18F7E87B93DC28AB38F7EDA
:100210008ABB87B18E7F87B987B18D7F87B987B158
:10022000846087B987B1877F87B987B18F7E87B9A7
:100230002AC28AB38F7D8ABB87B1816087B987B1B3
:100240008D7F87B987B1846087B987B1877F87B988
:1002500087B18F7E87B917C28AB38F7B8ABB87B17C
:100260008E7F87B987B1826087B987B1846087B98B
:1002700087B1877F87B987B18F7E87B904C28AB378
:100280008F778ABB87B1816087B987B1826087B970
:1002900087B1846087B987B1877F87B987B18F7E3F
:1002A00087B9F1C18AB38E7F8ABB87B18E7F87B948
:1002B00087B18D7F87B987B18B7F87B987B1886018
:1002C00087B987B18F7E87B9DEC18AB38E7F8ABB3B
:1002D0008AB38D7F8ABB87B1816087B987B18D7FF3
:1002E00087B987B18B7F87B987B1886087B987B1B4
:1002F0008F7E87B9C8C18AB38E7F8ABB87B18E7F54
:1003000087B987B1826087B987B18B7F87B987B199
:10031000886087B987B18F7E87B9B5C18AB38E7F70
:100320008ABB8AB38D7F8ABB87B1816087B987B169
:10033000826087B987B18B7F87B987B1886087B9B9
:1003400087B18F7E87B99FC18AB38B7F8ABB87B104
:100350008E7F87B987B18D7F87B987B1846087B970
:1003600087B1886087B987B18F7E87B98CC18AB31E
:100370008B7F8ABB8AB3877F8ABB87B1816087B94D
:1003800087B18D7F87B987B1846087B987B188606D
:1003900087B987B18F7E87B976C18AB38B7F8ABBD5
:1003A00087B18E7F87B987B1826087B987B1846052
:1003B00087B987B1886087B987B18F7E87B963C1F4
:1003C0008AB38B7F8ABB8AB3877F8ABB87B1816000
:1003D00087B987B1826087B987B1846087B987B1EF
:1003E000886087B987B18F7E87B94DC18AB38E7F08
:1003F0008ABB8AB38D7F8ABB87B18E7F87B987B16D
:100400008D7F87B987B18B7F87B987B1877F87B9A0
:1004100087B1806187B937C18AB38D7F8ABB87B1C5
:10042000816087B987B18D7F87B987B18B7F87B9A5
:1004300087B1877F87B987B1806187B924C18AB3C3
:100440008D7F8ABB8AB38B7F8ABB87B18E7F87B94A
:1004500087B1826087B987B18B7F87B987B1877F82
:1004600087B987B1806187B90EC18AB38D7F8ABB96
:100470008AB3877F8ABB87B1816087B987B1826081
:1004800087B987B18B7F87B987B1877F87B987B1F4
:10049000806187B9F8C08AB38D7F8ABB8AB38F7EAB
:1004A0008ABB87B18E7F87B987B18D7F87B987B1C6
:1004B000846087B987B1877F87B987B1806187B941
:1004C000E2C08AB38D7F8ABB8AB38F7D8ABB87B136
:1004D000816087B987B18D7F87B987B1846087B91B
:1004E00087B1877F87B987B1806187B9CCC08AB36C
:1004F0008D7F8ABB8AB38F7B8ABB87B18E7F87B99A
:1005000087B1826087B987B1846087B987B1877FF7
:1005100087B987B1806187B9B6C08AB38D7F8ABB3E
:100520008AB38F778ABB87B1816087B987B18260D0
:1005300087B987B1846087B987B1877F87B987B169
:10054000806187B9A0C08AB38E7F8ABB8AB38B7F54
:100550008ABB87B18E7F87B987B18D7F87B987B115
:100560008B7F87B987B1886087B987B1806187B988
:100570008AC08AB38D7F8ABB8AB38B7F8ABB87B1DF
:10058000816087B987B18D7F87B987B18B7F87B944
:1005900087B1886087B987B1806187B974C08AB331
:1005A0008B7F8ABB87B18E7F87B987B1826087B91D
:1005B00087B18B7F87B987B1886087B987B1806140
:1005C00087B961C08AB38B7F8ABB8AB3877F8ABBB6
:1005D00087B1816087B987B1826087B987B18B7F26
:1005E00087B987B1886087B987B1806187B94BC007
:1005F0008AB38B7F8ABB8AB38F7E8ABB87B18E7F9B
:1006000087B987B18D7F87B987B1846087B987B192
:10061000886087B987B1806187B935C08AB38B7F1D
:100620008ABB8AB38F7D8ABB87B1816087B987B166
:100630008D7F87B987B1846087B987B1886087B9B2
:1006400087B1806187B91FC087B18E7F87B987B1B5
:10065000826087B987B1846087B987B1886087B9BC
:1006600087B1806187B90FC087B1816087B987B1D1
:10067000826087B987B1846087B987B1886087B99C
:1006800087B1806187B9862F90E08730910508F0A7
:100690004AC0FC01E65BFF4F0C94C50486B18E7F17
:1006A00086B986B18D7F86B986B18B7F86B93BC00E
:1006B00086B18E7F86B986B1826086B986B18B7F1E
:1006C00086B931C086B1816086B986B1826086B94B
:1006D00086B18B7F86B927C086B18E7F86B986B1F9
:1006E0008D7F86B986B1846086B91DC086B1816070
:1006F00086B986B18D7F86B986B1846086B913C00C
:1007000086B18E7F86B986B1826086B986B18460F3
:1007100086B909C086B1816086B986B1826086B922
:1007200086B1846086B986B1877F86B986B18F7DB0
:1007300086B986B1806886B90895882319F081301A
:1007400029F0089587B18F7D87B9089587B18062B8
:1007500087B9089586B1806486B9349BFECF86B18F
:10076000806186B93D9903C084B195B1089584B183
:1007700095B10024880F991F001C880F991F001C39
:10078000892F902D089590E0FC01E154F109E432A5
:10079000F10508F073C0EF5AFF4F0C94C5044423D1
:1007A00019F0413069F008952AB381E090E002C069
:1007B000880F991F6A95E2F7809582238ABB089576
:1007C0002AB381E090E002C0880F991F6A95E2F792
:1007D000822B8ABB0895442319F0413069F00895B3
:1007E00027B381E090E002C0880F991F6A95E2F775
:1007F0008095822387BB089527B381E090E002C0F3
:10080000880F991F6A95E2F7822B87BB08954423CE
:1008100019F0413069F0089524B381E090E002C0FE
:10082000880F991F6A95E2F78095822384BB08950B
:1008300024B381E090E002C0880F991F6A95E2F727
:10084000822B84BB0895442319F0413069F0089548
:1008500021B381E090E002C0880F991F6A95E2F70A
:100860008095822381BB089521B381E090E002C08E
:10087000880F991F6A95E2F7822B81BB089590E05B
:10088000FC01E154F109E432F10578F5EB58FF4F32
:100890000C94C5042BB381E090E002C0880F991F2F
:1008A0006A95E2F782278BBB089528B381E090E038
:1008B00002C0880F991F6A95E2F7822788BB0895C6
:1008C00025B381E090E002C0880F991F6A95E2F796
:1008D000822785BB089522B381E090E002C0880F93
:1008E000991F6A95E2F7822782BB089541E00E9432
:1008F000C30308950E943F040895CF93DF931F928E
:10090000CDB7DEB7198262E080E00E94A50081E0E9
:100910000E949D0361E081E60E94760480B58068B4
:1009200080BD80B58F7B80BD80B58F7E80BD80B55A
:100930008F7D80BD80B5877F80BD80B5826080BDA2
:1009400080B5846080BD8AB18B7F8AB910BC8CE091
:1009500089B98AB188608AB98AB180618AB90E94EE
:10096000AA03969587959695879589835D9B06C082
:1009700061E081E60E947A0489818CB983EC99E078
:100980000197F1F700C00000EACFEE0FFF1F0590BE
:0A099000F491E02D0994F894FFCFD4
:00000001FF
